{
  "_format": "hh-sol-artifact-1",
  "contractName": "ICO",
  "sourceName": "contracts/ICO.sol",
  "abi": [
    {
      "inputs": [
        {
          "internalType": "address",
          "name": "_token",
          "type": "address"
        }
      ],
      "stateMutability": "nonpayable",
      "type": "constructor"
    },
    {
      "anonymous": false,
      "inputs": [
        {
          "indexed": true,
          "internalType": "address",
          "name": "investor",
          "type": "address"
        },
        {
          "indexed": false,
          "internalType": "uint256",
          "name": "amount",
          "type": "uint256"
        }
      ],
      "name": "Claim",
      "type": "event"
    },
    {
      "anonymous": false,
      "inputs": [
        {
          "indexed": true,
          "internalType": "address",
          "name": "investor",
          "type": "address"
        },
        {
          "indexed": false,
          "internalType": "uint256",
          "name": "amount",
          "type": "uint256"
        }
      ],
      "name": "Deposit",
      "type": "event"
    },
    {
      "anonymous": false,
      "inputs": [
        {
          "indexed": true,
          "internalType": "address",
          "name": "previousOwner",
          "type": "address"
        },
        {
          "indexed": true,
          "internalType": "address",
          "name": "newOwner",
          "type": "address"
        }
      ],
      "name": "OwnershipTransferred",
      "type": "event"
    },
    {
      "anonymous": false,
      "inputs": [
        {
          "indexed": true,
          "internalType": "address",
          "name": "investor",
          "type": "address"
        },
        {
          "indexed": false,
          "internalType": "uint256",
          "name": "amount",
          "type": "uint256"
        }
      ],
      "name": "Withdraw",
      "type": "event"
    },
    {
      "inputs": [
        {
          "internalType": "uint256",
          "name": "start",
          "type": "uint256"
        },
        {
          "internalType": "uint256",
          "name": "end",
          "type": "uint256"
        }
      ],
      "name": "changeTime",
      "outputs": [],
      "stateMutability": "nonpayable",
      "type": "function"
    },
    {
      "inputs": [],
      "name": "claim",
      "outputs": [],
      "stateMutability": "nonpayable",
      "type": "function"
    },
    {
      "inputs": [],
      "name": "deposit",
      "outputs": [],
      "stateMutability": "payable",
      "type": "function"
    },
    {
      "inputs": [
        {
          "internalType": "address",
          "name": "",
          "type": "address"
        }
      ],
      "name": "deposits",
      "outputs": [
        {
          "internalType": "uint256",
          "name": "",
          "type": "uint256"
        }
      ],
      "stateMutability": "view",
      "type": "function"
    },
    {
      "inputs": [],
      "name": "endTime",
      "outputs": [
        {
          "internalType": "uint256",
          "name": "",
          "type": "uint256"
        }
      ],
      "stateMutability": "view",
      "type": "function"
    },
    {
      "inputs": [],
      "name": "hardcap",
      "outputs": [
        {
          "internalType": "uint256",
          "name": "",
          "type": "uint256"
        }
      ],
      "stateMutability": "view",
      "type": "function"
    },
    {
      "inputs": [],
      "name": "maxPurchase",
      "outputs": [
        {
          "internalType": "uint256",
          "name": "",
          "type": "uint256"
        }
      ],
      "stateMutability": "view",
      "type": "function"
    },
    {
      "inputs": [],
      "name": "minPurchase",
      "outputs": [
        {
          "internalType": "uint256",
          "name": "",
          "type": "uint256"
        }
      ],
      "stateMutability": "view",
      "type": "function"
    },
    {
      "inputs": [],
      "name": "owner",
      "outputs": [
        {
          "internalType": "address",
          "name": "",
          "type": "address"
        }
      ],
      "stateMutability": "view",
      "type": "function"
    },
    {
      "inputs": [],
      "name": "rate",
      "outputs": [
        {
          "internalType": "uint256",
          "name": "",
          "type": "uint256"
        }
      ],
      "stateMutability": "view",
      "type": "function"
    },
    {
      "inputs": [],
      "name": "renounceOwnership",
      "outputs": [],
      "stateMutability": "nonpayable",
      "type": "function"
    },
    {
      "inputs": [],
      "name": "softcap",
      "outputs": [
        {
          "internalType": "uint256",
          "name": "",
          "type": "uint256"
        }
      ],
      "stateMutability": "view",
      "type": "function"
    },
    {
      "inputs": [],
      "name": "startTime",
      "outputs": [
        {
          "internalType": "uint256",
          "name": "",
          "type": "uint256"
        }
      ],
      "stateMutability": "view",
      "type": "function"
    },
    {
      "inputs": [],
      "name": "token",
      "outputs": [
        {
          "internalType": "contract ICOToken",
          "name": "",
          "type": "address"
        }
      ],
      "stateMutability": "view",
      "type": "function"
    },
    {
      "inputs": [],
      "name": "totalDeposit",
      "outputs": [
        {
          "internalType": "uint256",
          "name": "",
          "type": "uint256"
        }
      ],
      "stateMutability": "view",
      "type": "function"
    },
    {
      "inputs": [
        {
          "internalType": "address",
          "name": "newOwner",
          "type": "address"
        }
      ],
      "name": "transferOwnership",
      "outputs": [],
      "stateMutability": "nonpayable",
      "type": "function"
    },
    {
      "inputs": [],
      "name": "withdraw",
      "outputs": [],
      "stateMutability": "nonpayable",
      "type": "function"
    }
  ],
  "bytecode": "0x608060405267016345785d8a0000600355670de0b6b3a7640000600455662386f26fc1000060055566b1a2bc2ec5000060065566038d7ea4c6800060075563645ade8060085563645c300060095534801561005957600080fd5b50604051610ccd380380610ccd83398101604081905261007891610101565b6100886100836100ad565b6100b1565b600180546001600160a01b0319166001600160a01b039290921691909117905561012f565b3390565b600080546001600160a01b038381166001600160a01b0319831681178455604051919092169283917f8be0079c531659141344cd1fd0a4f28419497f9722a3daafe3b4186f6b6457e09190a35050565b600060208284031215610112578081fd5b81516001600160a01b0381168114610128578182fd5b9392505050565b610b8f8061013e6000396000f3fe6080604052600436106100fe5760003560e01c80638da5cb5b11610095578063f2fde38b11610064578063f2fde38b14610222578063f6153ccd14610242578063f89be59314610257578063fc0c546a1461026c578063fc7e286d14610281576100fe565b80638da5cb5b146101ce578063977b055b146101f0578063b071cbe614610205578063d0e30db01461021a576100fe565b80634e71d92d116100d15780634e71d92d1461016f578063707188c114610184578063715018a6146101a457806378e97925146101b9576100fe565b80632c4e722e146101035780633197cbb61461012e57806333b5b62e146101435780633ccfd60b14610158575b600080fd5b34801561010f57600080fd5b506101186102a1565b6040516101259190610aeb565b60405180910390f35b34801561013a57600080fd5b506101186102a7565b34801561014f57600080fd5b506101186102ad565b34801561016457600080fd5b5061016d6102b3565b005b34801561017b57600080fd5b5061016d6103b2565b34801561019057600080fd5b5061016d61019f3660046107f3565b61050e565b3480156101b057600080fd5b5061016d610519565b3480156101c557600080fd5b50610118610564565b3480156101da57600080fd5b506101e361056a565b6040516101259190610814565b3480156101fc57600080fd5b50610118610579565b34801561021157600080fd5b5061011861057f565b61016d610585565b34801561022e57600080fd5b5061016d61023d3660046107a5565b6106b3565b34801561024e57600080fd5b50610118610724565b34801561026357600080fd5b5061011861072a565b34801561027857600080fd5b506101e3610730565b34801561028d57600080fd5b5061011861029c3660046107a5565b61073f565b60075481565b60095481565b60055481565b60095442116102dd5760405162461bcd60e51b81526004016102d4906109eb565b60405180910390fd5b600354600a54106103005760405162461bcd60e51b81526004016102d4906108f5565b3360009081526002602052604090205461032c5760405162461bcd60e51b81526004016102d490610841565b33600081815260026020526040808220805490839055905190929183156108fc02918491818181858888f1935050505015801561036d573d6000803e3d6000fd5b50336001600160a01b03167f884edad9ce6fa2440d8a54cc123490eb96d2768479d49ff9c7366125a9424364826040516103a79190610aeb565b60405180910390a250565b6009544211806103c55750600454600a54145b6103e15760405162461bcd60e51b81526004016102d490610a4c565b600354600a5410156104055760405162461bcd60e51b81526004016102d490610abe565b336000908152600260205260409020546104315760405162461bcd60e51b81526004016102d490610841565b60075433600090815260026020526040812054909161044f91610b0c565b60015460405163a9059cbb60e01b81529192506001600160a01b03169063a9059cbb906104829033908590600401610828565b602060405180830381600087803b15801561049c57600080fd5b505af11580156104b0573d6000803e3d6000fd5b505050506040513d601f19601f820116820180604052508101906104d491906107d3565b50336001600160a01b03167f47cee97cb7acd717b3c0aa1435d004cd5b3c8c57d70dbceb4e4458bbd60e39d4826040516103a79190610aeb565b600891909155600955565b610521610751565b6001600160a01b031661053261056a565b6001600160a01b0316146105585760405162461bcd60e51b81526004016102d490610a17565b6105626000610755565b565b60085481565b6000546001600160a01b031690565b60065481565b60045481565b6008544210156105a75760405162461bcd60e51b81526004016102d490610878565b6009544211156105c95760405162461bcd60e51b81526004016102d490610a96565b6005543410156105eb5760405162461bcd60e51b81526004016102d4906109a0565b60065434111561060d5760405162461bcd60e51b81526004016102d490610955565b34600a5460045461061e9190610b2c565b101561063c5760405162461bcd60e51b81526004016102d49061091e565b34600a600082825461064e9190610af4565b90915550503360009081526002602052604081208054349290610672908490610af4565b909155505060405133907fe1fffcc4923d04b559f4d29a8bfc6cda04eb5b0d3c460751c2402c5c5cc9109c906106a9903490610aeb565b60405180910390a2565b6106bb610751565b6001600160a01b03166106cc61056a565b6001600160a01b0316146106f25760405162461bcd60e51b81526004016102d490610a17565b6001600160a01b0381166107185760405162461bcd60e51b81526004016102d4906108af565b61072181610755565b50565b600a5481565b60035481565b6001546001600160a01b031681565b60026020526000908152604090205481565b3390565b600080546001600160a01b038381166001600160a01b0319831681178455604051919092169283917f8be0079c531659141344cd1fd0a4f28419497f9722a3daafe3b4186f6b6457e09190a35050565b6000602082840312156107b6578081fd5b81356001600160a01b03811681146107cc578182fd5b9392505050565b6000602082840312156107e4578081fd5b815180151581146107cc578182fd5b60008060408385031215610805578081fd5b50508035926020909101359150565b6001600160a01b0391909116815260200190565b6001600160a01b03929092168252602082015260400190565b60208082526017908201527f4e6f206465706f7369747320746f207769746864726177000000000000000000604082015260600190565b60208082526018908201527f49434f20686173206e6f742079657420737461727465642e0000000000000000604082015260600190565b60208082526026908201527f4f776e61626c653a206e6577206f776e657220697320746865207a65726f206160408201526564647265737360d01b606082015260800190565b6020808252600f908201526e14dbd99d18d85c081c995858da1959608a1b604082015260600190565b60208082526017908201527f416d6f756e742065786365656473204861726420636170000000000000000000604082015260600190565b6020808252602b908201527f416d6f756e74206973206d6f7265207468616e206d6178696d756d207075726360408201526a1a185cd948185b5bdd5b9d60aa1b606082015260800190565b6020808252602b908201527f416d6f756e74206973206c657373207468616e206d696e696d756d207075726360408201526a1a185cd948185b5bdd5b9d60aa1b606082015260800190565b60208082526012908201527124a1a7903430b9903737ba1032b73232b21760711b604082015260600190565b6020808252818101527f4f776e61626c653a2063616c6c6572206973206e6f7420746865206f776e6572604082015260600190565b6020808252602a908201527f49434f20686173206e6f7420656e646564206f72204861726420636170206e6f6040820152693a103932b0b1b432b21760b11b606082015260800190565b6020808252600e908201526d24a1a7903430b99032b73232b21760911b604082015260600190565b60208082526013908201527214dbd99d18d85c081b9bdd081c995858da1959606a1b604082015260600190565b90815260200190565b60008219821115610b0757610b07610b43565b500190565b600082610b2757634e487b7160e01b81526012600452602481fd5b500490565b600082821015610b3e57610b3e610b43565b500390565b634e487b7160e01b600052601160045260246000fdfea2646970667358221220273e23c13d410e5d3be7392c8e4f2f90b4e3562db4e8eb094f88248d43ad4dcd64736f6c63430008000033",
  "linkReferences": {},
  "deployedLinkReferences": {}
}