{
  "_format": "hh-sol-artifact-1",
  "contractName": "ICO",
  "sourceName": "contracts/ICO.sol",
  "abi": [
    {
      "inputs": [
        {
          "internalType": "contract ICOToken",
          "name": "_token",
          "type": "address"
        },
        {
          "internalType": "uint256",
          "name": "_softCap",
          "type": "uint256"
        },
        {
          "internalType": "uint256",
          "name": "_hardCap",
          "type": "uint256"
        },
        {
          "internalType": "uint256",
          "name": "_minPurchaseAmount",
          "type": "uint256"
        },
        {
          "internalType": "uint256",
          "name": "_maxPurchaseAmount",
          "type": "uint256"
        }
      ],
      "stateMutability": "nonpayable",
      "type": "constructor"
    },
    {
      "anonymous": false,
      "inputs": [
        {
          "indexed": true,
          "internalType": "address",
          "name": "to",
          "type": "address"
        },
        {
          "indexed": false,
          "internalType": "uint256",
          "name": "value",
          "type": "uint256"
        }
      ],
      "name": "Claim",
      "type": "event"
    },
    {
      "anonymous": false,
      "inputs": [
        {
          "indexed": true,
          "internalType": "address",
          "name": "from",
          "type": "address"
        },
        {
          "indexed": false,
          "internalType": "uint256",
          "name": "value",
          "type": "uint256"
        }
      ],
      "name": "Deposit",
      "type": "event"
    },
    {
      "anonymous": false,
      "inputs": [
        {
          "indexed": true,
          "internalType": "address",
          "name": "to",
          "type": "address"
        },
        {
          "indexed": false,
          "internalType": "uint256",
          "name": "value",
          "type": "uint256"
        }
      ],
      "name": "Withdraw",
      "type": "event"
    },
    {
      "inputs": [],
      "name": "claimTokens",
      "outputs": [],
      "stateMutability": "nonpayable",
      "type": "function"
    },
    {
      "inputs": [
        {
          "internalType": "address",
          "name": "",
          "type": "address"
        }
      ],
      "name": "deposit",
      "outputs": [
        {
          "internalType": "uint256",
          "name": "",
          "type": "uint256"
        }
      ],
      "stateMutability": "view",
      "type": "function"
    },
    {
      "inputs": [],
      "name": "depositFunds",
      "outputs": [],
      "stateMutability": "payable",
      "type": "function"
    },
    {
      "inputs": [],
      "name": "endICO",
      "outputs": [],
      "stateMutability": "nonpayable",
      "type": "function"
    },
    {
      "inputs": [],
      "name": "hardCap",
      "outputs": [
        {
          "internalType": "uint256",
          "name": "",
          "type": "uint256"
        }
      ],
      "stateMutability": "view",
      "type": "function"
    },
    {
      "inputs": [],
      "name": "isICOActive",
      "outputs": [
        {
          "internalType": "bool",
          "name": "",
          "type": "bool"
        }
      ],
      "stateMutability": "view",
      "type": "function"
    },
    {
      "inputs": [],
      "name": "maxPurchaseAmount",
      "outputs": [
        {
          "internalType": "uint256",
          "name": "",
          "type": "uint256"
        }
      ],
      "stateMutability": "view",
      "type": "function"
    },
    {
      "inputs": [],
      "name": "minPurchaseAmount",
      "outputs": [
        {
          "internalType": "uint256",
          "name": "",
          "type": "uint256"
        }
      ],
      "stateMutability": "view",
      "type": "function"
    },
    {
      "inputs": [],
      "name": "owner",
      "outputs": [
        {
          "internalType": "address",
          "name": "",
          "type": "address"
        }
      ],
      "stateMutability": "view",
      "type": "function"
    },
    {
      "inputs": [],
      "name": "softCap",
      "outputs": [
        {
          "internalType": "uint256",
          "name": "",
          "type": "uint256"
        }
      ],
      "stateMutability": "view",
      "type": "function"
    },
    {
      "inputs": [],
      "name": "token",
      "outputs": [
        {
          "internalType": "contract ICOToken",
          "name": "",
          "type": "address"
        }
      ],
      "stateMutability": "view",
      "type": "function"
    },
    {
      "inputs": [],
      "name": "withdrawFunds",
      "outputs": [],
      "stateMutability": "nonpayable",
      "type": "function"
    }
  ],
  "bytecode": "0x60806040523480156200001157600080fd5b5060405162001187380380620011878339818101604052810190620000379190620001b3565b846000806101000a81548173ffffffffffffffffffffffffffffffffffffffff021916908373ffffffffffffffffffffffffffffffffffffffff16021790555033600160006101000a81548173ffffffffffffffffffffffffffffffffffffffff021916908373ffffffffffffffffffffffffffffffffffffffff160217905550836003819055508260048190555081600581905550806006819055506001600760006101000a81548160ff02191690831515021790555050505050506200023b565b600080fd5b600073ffffffffffffffffffffffffffffffffffffffff82169050919050565b60006200012c82620000ff565b9050919050565b600062000140826200011f565b9050919050565b620001528162000133565b81146200015e57600080fd5b50565b600081519050620001728162000147565b92915050565b6000819050919050565b6200018d8162000178565b81146200019957600080fd5b50565b600081519050620001ad8162000182565b92915050565b600080600080600060a08688031215620001d257620001d1620000fa565b5b6000620001e28882890162000161565b9550506020620001f5888289016200019c565b945050604062000208888289016200019c565b93505060606200021b888289016200019c565b92505060806200022e888289016200019c565b9150509295509295909350565b610f3c806200024b6000396000f3fe6080604052600436106100a75760003560e01c8063e2c41dbc11610064578063e2c41dbc14610172578063f340fa011461017c578063f6933c7d146101b9578063f952fcad146101e4578063fb86a4041461020f578063fc0c546a1461023a576100a7565b806324600fc3146100ac57806348c54b9d146100c35780634f248409146100da5780638da5cb5b146100f1578063906a26e01461011c578063b47dbf2214610147575b600080fd5b3480156100b857600080fd5b506100c1610265565b005b3480156100cf57600080fd5b506100d8610453565b005b3480156100e657600080fd5b506100ef6106b0565b005b3480156100fd57600080fd5b5061010661075d565b6040516101139190610973565b60405180910390f35b34801561012857600080fd5b50610131610783565b60405161013e91906109a7565b60405180910390f35b34801561015357600080fd5b5061015c610789565b60405161016991906109a7565b60405180910390f35b61017a61078f565b005b34801561018857600080fd5b506101a3600480360381019061019e91906109f3565b6108d7565b6040516101b091906109a7565b60405180910390f35b3480156101c557600080fd5b506101ce6108ef565b6040516101db9190610a3b565b60405180910390f35b3480156101f057600080fd5b506101f9610902565b60405161020691906109a7565b60405180910390f35b34801561021b57600080fd5b50610224610908565b60405161023191906109a7565b60405180910390f35b34801561024657600080fd5b5061024f61090e565b60405161025c9190610ab5565b60405180910390f35b600760009054906101000a900460ff16156102b5576040517f08c379a00000000000000000000000000000000000000000000000000000000081526004016102ac90610b2d565b60405180910390fd5b60035447106102f9576040517f08c379a00000000000000000000000000000000000000000000000000000000081526004016102f090610b99565b60405180910390fd5b3373ffffffffffffffffffffffffffffffffffffffff166108fc600260003373ffffffffffffffffffffffffffffffffffffffff1673ffffffffffffffffffffffffffffffffffffffff168152602001908152602001600020549081150290604051600060405180830381858888f1935050505015801561037e573d6000803e3d6000fd5b506000600260003373ffffffffffffffffffffffffffffffffffffffff1673ffffffffffffffffffffffffffffffffffffffff168152602001908152602001600020819055503373ffffffffffffffffffffffffffffffffffffffff167f884edad9ce6fa2440d8a54cc123490eb96d2768479d49ff9c7366125a9424364600260003373ffffffffffffffffffffffffffffffffffffffff1673ffffffffffffffffffffffffffffffffffffffff1681526020019081526020016000205460405161044991906109a7565b60405180910390a2565b600760009054906101000a900460ff161580610470575060045447115b6104af576040517f08c379a00000000000000000000000000000000000000000000000000000000081526004016104a690610b2d565b60405180910390fd5b6003544710156104f4576040517f08c379a00000000000000000000000000000000000000000000000000000000081526004016104eb90610c05565b60405180910390fd5b6000600260003373ffffffffffffffffffffffffffffffffffffffff1673ffffffffffffffffffffffffffffffffffffffff1681526020019081526020016000205490506000811161057b576040517f08c379a000000000000000000000000000000000000000000000000000000000815260040161057290610c97565b60405180910390fd5b6000600260003373ffffffffffffffffffffffffffffffffffffffff1673ffffffffffffffffffffffffffffffffffffffff1681526020019081526020016000208190555060008054906101000a900473ffffffffffffffffffffffffffffffffffffffff1673ffffffffffffffffffffffffffffffffffffffff1663a9059cbb33836040518363ffffffff1660e01b815260040161061b929190610cb7565b6020604051808303816000875af115801561063a573d6000803e3d6000fd5b505050506040513d601f19601f8201168201806040525081019061065e9190610d0c565b503373ffffffffffffffffffffffffffffffffffffffff167f47cee97cb7acd717b3c0aa1435d004cd5b3c8c57d70dbceb4e4458bbd60e39d4826040516106a591906109a7565b60405180910390a250565b600160009054906101000a900473ffffffffffffffffffffffffffffffffffffffff1673ffffffffffffffffffffffffffffffffffffffff163373ffffffffffffffffffffffffffffffffffffffff1614610740576040517f08c379a000000000000000000000000000000000000000000000000000000000815260040161073790610dab565b60405180910390fd5b6000600760006101000a81548160ff021916908315150217905550565b600160009054906101000a900473ffffffffffffffffffffffffffffffffffffffff1681565b60035481565b60055481565b600760009054906101000a900460ff166107de576040517f08c379a00000000000000000000000000000000000000000000000000000000081526004016107d590610e17565b60405180910390fd5b60055434101580156107f257506006543411155b610831576040517f08c379a000000000000000000000000000000000000000000000000000000000815260040161082890610e83565b60405180910390fd5b34600260003373ffffffffffffffffffffffffffffffffffffffff1673ffffffffffffffffffffffffffffffffffffffff16815260200190815260200160002060008282546108809190610ed2565b925050819055503373ffffffffffffffffffffffffffffffffffffffff167fe1fffcc4923d04b559f4d29a8bfc6cda04eb5b0d3c460751c2402c5c5cc9109c346040516108cd91906109a7565b60405180910390a2565b60026020528060005260406000206000915090505481565b600760009054906101000a900460ff1681565b60065481565b60045481565b60008054906101000a900473ffffffffffffffffffffffffffffffffffffffff1681565b600073ffffffffffffffffffffffffffffffffffffffff82169050919050565b600061095d82610932565b9050919050565b61096d81610952565b82525050565b60006020820190506109886000830184610964565b92915050565b6000819050919050565b6109a18161098e565b82525050565b60006020820190506109bc6000830184610998565b92915050565b600080fd5b6109d081610952565b81146109db57600080fd5b50565b6000813590506109ed816109c7565b92915050565b600060208284031215610a0957610a086109c2565b5b6000610a17848285016109de565b91505092915050565b60008115159050919050565b610a3581610a20565b82525050565b6000602082019050610a506000830184610a2c565b92915050565b6000819050919050565b6000610a7b610a76610a7184610932565b610a56565b610932565b9050919050565b6000610a8d82610a60565b9050919050565b6000610a9f82610a82565b9050919050565b610aaf81610a94565b82525050565b6000602082019050610aca6000830184610aa6565b92915050565b600082825260208201905092915050565b7f49434f206973207374696c6c206163746976652e000000000000000000000000600082015250565b6000610b17601483610ad0565b9150610b2282610ae1565b602082019050919050565b60006020820190508181036000830152610b4681610b0a565b9050919050565b7f536f66742063617020726561636865642e000000000000000000000000000000600082015250565b6000610b83601183610ad0565b9150610b8e82610b4d565b602082019050919050565b60006020820190508181036000830152610bb281610b76565b9050919050565b7f536f667420636170206e6f7420726561636865642e0000000000000000000000600082015250565b6000610bef601583610ad0565b9150610bfa82610bb9565b602082019050919050565b60006020820190508181036000830152610c1e81610be2565b9050919050565b7f4e6f206465706f73697420666f756e6420666f7220746869732061646472657360008201527f732e000000000000000000000000000000000000000000000000000000000000602082015250565b6000610c81602283610ad0565b9150610c8c82610c25565b604082019050919050565b60006020820190508181036000830152610cb081610c74565b9050919050565b6000604082019050610ccc6000830185610964565b610cd96020830184610998565b9392505050565b610ce981610a20565b8114610cf457600080fd5b50565b600081519050610d0681610ce0565b92915050565b600060208284031215610d2257610d216109c2565b5b6000610d3084828501610cf7565b91505092915050565b7f4f6e6c79206f776e65722063616e2063616c6c20746869732066756e6374696f60008201527f6e2e000000000000000000000000000000000000000000000000000000000000602082015250565b6000610d95602283610ad0565b9150610da082610d39565b604082019050919050565b60006020820190508181036000830152610dc481610d88565b9050919050565b7f49434f206973206e6f74206163746976652e0000000000000000000000000000600082015250565b6000610e01601283610ad0565b9150610e0c82610dcb565b602082019050919050565b60006020820190508181036000830152610e3081610df4565b9050919050565b7f496e76616c696420707572636861736520616d6f756e742e0000000000000000600082015250565b6000610e6d601883610ad0565b9150610e7882610e37565b602082019050919050565b60006020820190508181036000830152610e9c81610e60565b9050919050565b7f4e487b7100000000000000000000000000000000000000000000000000000000600052601160045260246000fd5b6000610edd8261098e565b9150610ee88361098e565b9250828201905080821115610f0057610eff610ea3565b5b9291505056fea2646970667358221220ffa4f1387b33b1ea3d51d9d34b9e25824eb08b7df0608f63ee5a007f53f6908264736f6c63430008120033",
  "linkReferences": {},
  "deployedLinkReferences": {}
}