{
  "_format": "hh-sol-artifact-1",
  "contractName": "ICO",
  "sourceName": "contracts/ICO.sol",
  "abi": [
    {
      "inputs": [
        {
          "internalType": "address",
          "name": "_token",
          "type": "address"
        },
        {
          "internalType": "uint256",
          "name": "_softcap",
          "type": "uint256"
        },
        {
          "internalType": "uint256",
          "name": "_hardcap",
          "type": "uint256"
        },
        {
          "internalType": "uint256",
          "name": "_minPurchase",
          "type": "uint256"
        },
        {
          "internalType": "uint256",
          "name": "_maxPurchase",
          "type": "uint256"
        },
        {
          "internalType": "uint256",
          "name": "_rate",
          "type": "uint256"
        },
        {
          "internalType": "uint256",
          "name": "_startTime",
          "type": "uint256"
        },
        {
          "internalType": "uint256",
          "name": "_endTime",
          "type": "uint256"
        }
      ],
      "stateMutability": "nonpayable",
      "type": "constructor"
    },
    {
      "anonymous": false,
      "inputs": [
        {
          "indexed": true,
          "internalType": "address",
          "name": "investor",
          "type": "address"
        },
        {
          "indexed": false,
          "internalType": "uint256",
          "name": "amount",
          "type": "uint256"
        }
      ],
      "name": "Claim",
      "type": "event"
    },
    {
      "anonymous": false,
      "inputs": [
        {
          "indexed": true,
          "internalType": "address",
          "name": "investor",
          "type": "address"
        },
        {
          "indexed": false,
          "internalType": "uint256",
          "name": "amount",
          "type": "uint256"
        }
      ],
      "name": "Deposit",
      "type": "event"
    },
    {
      "anonymous": false,
      "inputs": [
        {
          "indexed": true,
          "internalType": "address",
          "name": "previousOwner",
          "type": "address"
        },
        {
          "indexed": true,
          "internalType": "address",
          "name": "newOwner",
          "type": "address"
        }
      ],
      "name": "OwnershipTransferred",
      "type": "event"
    },
    {
      "anonymous": false,
      "inputs": [
        {
          "indexed": true,
          "internalType": "address",
          "name": "investor",
          "type": "address"
        },
        {
          "indexed": false,
          "internalType": "uint256",
          "name": "amount",
          "type": "uint256"
        }
      ],
      "name": "Withdraw",
      "type": "event"
    },
    {
      "inputs": [],
      "name": "claim",
      "outputs": [],
      "stateMutability": "nonpayable",
      "type": "function"
    },
    {
      "inputs": [],
      "name": "deposit",
      "outputs": [],
      "stateMutability": "payable",
      "type": "function"
    },
    {
      "inputs": [
        {
          "internalType": "address",
          "name": "",
          "type": "address"
        }
      ],
      "name": "deposits",
      "outputs": [
        {
          "internalType": "uint256",
          "name": "",
          "type": "uint256"
        }
      ],
      "stateMutability": "view",
      "type": "function"
    },
    {
      "inputs": [],
      "name": "endTime",
      "outputs": [
        {
          "internalType": "uint256",
          "name": "",
          "type": "uint256"
        }
      ],
      "stateMutability": "view",
      "type": "function"
    },
    {
      "inputs": [],
      "name": "hardcap",
      "outputs": [
        {
          "internalType": "uint256",
          "name": "",
          "type": "uint256"
        }
      ],
      "stateMutability": "view",
      "type": "function"
    },
    {
      "inputs": [],
      "name": "maxPurchase",
      "outputs": [
        {
          "internalType": "uint256",
          "name": "",
          "type": "uint256"
        }
      ],
      "stateMutability": "view",
      "type": "function"
    },
    {
      "inputs": [],
      "name": "minPurchase",
      "outputs": [
        {
          "internalType": "uint256",
          "name": "",
          "type": "uint256"
        }
      ],
      "stateMutability": "view",
      "type": "function"
    },
    {
      "inputs": [],
      "name": "owner",
      "outputs": [
        {
          "internalType": "address",
          "name": "",
          "type": "address"
        }
      ],
      "stateMutability": "view",
      "type": "function"
    },
    {
      "inputs": [],
      "name": "rate",
      "outputs": [
        {
          "internalType": "uint256",
          "name": "",
          "type": "uint256"
        }
      ],
      "stateMutability": "view",
      "type": "function"
    },
    {
      "inputs": [],
      "name": "renounceOwnership",
      "outputs": [],
      "stateMutability": "nonpayable",
      "type": "function"
    },
    {
      "inputs": [],
      "name": "softcap",
      "outputs": [
        {
          "internalType": "uint256",
          "name": "",
          "type": "uint256"
        }
      ],
      "stateMutability": "view",
      "type": "function"
    },
    {
      "inputs": [],
      "name": "startTime",
      "outputs": [
        {
          "internalType": "uint256",
          "name": "",
          "type": "uint256"
        }
      ],
      "stateMutability": "view",
      "type": "function"
    },
    {
      "inputs": [],
      "name": "token",
      "outputs": [
        {
          "internalType": "contract ICOToken",
          "name": "",
          "type": "address"
        }
      ],
      "stateMutability": "view",
      "type": "function"
    },
    {
      "inputs": [],
      "name": "totalDeposit",
      "outputs": [
        {
          "internalType": "uint256",
          "name": "",
          "type": "uint256"
        }
      ],
      "stateMutability": "view",
      "type": "function"
    },
    {
      "inputs": [
        {
          "internalType": "address",
          "name": "newOwner",
          "type": "address"
        }
      ],
      "name": "transferOwnership",
      "outputs": [],
      "stateMutability": "nonpayable",
      "type": "function"
    },
    {
      "inputs": [],
      "name": "withdraw",
      "outputs": [],
      "stateMutability": "nonpayable",
      "type": "function"
    }
  ],
  "bytecode": "0x608060405234801561001057600080fd5b50604051610c92380380610c9283398101604081905261002f916100d7565b61003f61003a610083565b610087565b600180546001600160a01b0319166001600160a01b03999099169890981790975560039590955560049390935560059190915560065560075560085560095561014b565b3390565b600080546001600160a01b038381166001600160a01b0319831681178455604051919092169283917f8be0079c531659141344cd1fd0a4f28419497f9722a3daafe3b4186f6b6457e09190a35050565b600080600080600080600080610100898b0312156100f3578384fd5b88516001600160a01b0381168114610109578485fd5b809850506020890151965060408901519550606089015194506080890151935060a0890151925060c0890151915060e089015190509295985092959890939650565b610b388061015a6000396000f3fe6080604052600436106100f35760003560e01c8063977b055b1161008a578063f6153ccd11610059578063f6153ccd14610217578063f89be5931461022c578063fc0c546a14610241578063fc7e286d14610256576100f3565b8063977b055b146101c5578063b071cbe6146101da578063d0e30db0146101ef578063f2fde38b146101f7576100f3565b80634e71d92d116100c65780634e71d92d14610164578063715018a61461017957806378e979251461018e5780638da5cb5b146101a3576100f3565b80632c4e722e146100f85780633197cbb61461012357806333b5b62e146101385780633ccfd60b1461014d575b600080fd5b34801561010457600080fd5b5061010d610276565b60405161011a9190610a94565b60405180910390f35b34801561012f57600080fd5b5061010d61027c565b34801561014457600080fd5b5061010d610282565b34801561015957600080fd5b50610162610288565b005b34801561017057600080fd5b50610162610387565b34801561018557600080fd5b506101626104e3565b34801561019a57600080fd5b5061010d61052e565b3480156101af57600080fd5b506101b8610534565b60405161011a91906107bd565b3480156101d157600080fd5b5061010d610543565b3480156101e657600080fd5b5061010d610549565b61016261054f565b34801561020357600080fd5b5061016261021236600461076f565b61067d565b34801561022357600080fd5b5061010d6106ee565b34801561023857600080fd5b5061010d6106f4565b34801561024d57600080fd5b506101b86106fa565b34801561026257600080fd5b5061010d61027136600461076f565b610709565b60075481565b60095481565b60055481565b60095442116102b25760405162461bcd60e51b81526004016102a990610994565b60405180910390fd5b600354600a54106102d55760405162461bcd60e51b81526004016102a99061089e565b336000908152600260205260409020546103015760405162461bcd60e51b81526004016102a9906107ea565b33600081815260026020526040808220805490839055905190929183156108fc02918491818181858888f19350505050158015610342573d6000803e3d6000fd5b50336001600160a01b03167f884edad9ce6fa2440d8a54cc123490eb96d2768479d49ff9c7366125a94243648260405161037c9190610a94565b60405180910390a250565b60095442118061039a5750600454600a54145b6103b65760405162461bcd60e51b81526004016102a9906109f5565b600354600a5410156103da5760405162461bcd60e51b81526004016102a990610a67565b336000908152600260205260409020546104065760405162461bcd60e51b81526004016102a9906107ea565b60075433600090815260026020526040812054909161042491610ab5565b60015460405163a9059cbb60e01b81529192506001600160a01b03169063a9059cbb9061045790339085906004016107d1565b602060405180830381600087803b15801561047157600080fd5b505af1158015610485573d6000803e3d6000fd5b505050506040513d601f19601f820116820180604052508101906104a9919061079d565b50336001600160a01b03167f47cee97cb7acd717b3c0aa1435d004cd5b3c8c57d70dbceb4e4458bbd60e39d48260405161037c9190610a94565b6104eb61071b565b6001600160a01b03166104fc610534565b6001600160a01b0316146105225760405162461bcd60e51b81526004016102a9906109c0565b61052c600061071f565b565b60085481565b6000546001600160a01b031690565b60065481565b60045481565b6008544210156105715760405162461bcd60e51b81526004016102a990610821565b6009544211156105935760405162461bcd60e51b81526004016102a990610a3f565b6005543410156105b55760405162461bcd60e51b81526004016102a990610949565b6006543411156105d75760405162461bcd60e51b81526004016102a9906108fe565b34600a546004546105e89190610ad5565b10156106065760405162461bcd60e51b81526004016102a9906108c7565b34600a60008282546106189190610a9d565b9091555050336000908152600260205260408120805434929061063c908490610a9d565b909155505060405133907fe1fffcc4923d04b559f4d29a8bfc6cda04eb5b0d3c460751c2402c5c5cc9109c90610673903490610a94565b60405180910390a2565b61068561071b565b6001600160a01b0316610696610534565b6001600160a01b0316146106bc5760405162461bcd60e51b81526004016102a9906109c0565b6001600160a01b0381166106e25760405162461bcd60e51b81526004016102a990610858565b6106eb8161071f565b50565b600a5481565b60035481565b6001546001600160a01b031681565b60026020526000908152604090205481565b3390565b600080546001600160a01b038381166001600160a01b0319831681178455604051919092169283917f8be0079c531659141344cd1fd0a4f28419497f9722a3daafe3b4186f6b6457e09190a35050565b600060208284031215610780578081fd5b81356001600160a01b0381168114610796578182fd5b9392505050565b6000602082840312156107ae578081fd5b81518015158114610796578182fd5b6001600160a01b0391909116815260200190565b6001600160a01b03929092168252602082015260400190565b60208082526017908201527f4e6f206465706f7369747320746f207769746864726177000000000000000000604082015260600190565b60208082526018908201527f49434f20686173206e6f742079657420737461727465642e0000000000000000604082015260600190565b60208082526026908201527f4f776e61626c653a206e6577206f776e657220697320746865207a65726f206160408201526564647265737360d01b606082015260800190565b6020808252600f908201526e14dbd99d18d85c081c995858da1959608a1b604082015260600190565b60208082526017908201527f416d6f756e742065786365656473204861726420636170000000000000000000604082015260600190565b6020808252602b908201527f416d6f756e74206973206d6f7265207468616e206d6178696d756d207075726360408201526a1a185cd948185b5bdd5b9d60aa1b606082015260800190565b6020808252602b908201527f416d6f756e74206973206c657373207468616e206d696e696d756d207075726360408201526a1a185cd948185b5bdd5b9d60aa1b606082015260800190565b60208082526012908201527124a1a7903430b9903737ba1032b73232b21760711b604082015260600190565b6020808252818101527f4f776e61626c653a2063616c6c6572206973206e6f7420746865206f776e6572604082015260600190565b6020808252602a908201527f49434f20686173206e6f7420656e646564206f72204861726420636170206e6f6040820152693a103932b0b1b432b21760b11b606082015260800190565b6020808252600e908201526d24a1a7903430b99032b73232b21760911b604082015260600190565b60208082526013908201527214dbd99d18d85c081b9bdd081c995858da1959606a1b604082015260600190565b90815260200190565b60008219821115610ab057610ab0610aec565b500190565b600082610ad057634e487b7160e01b81526012600452602481fd5b500490565b600082821015610ae757610ae7610aec565b500390565b634e487b7160e01b600052601160045260246000fdfea264697066735822122004438c1d0ea5ff6b637c997916e915bb4006b2c5ba7a14e42746253629b9c81a64736f6c63430008000033",
  "linkReferences": {},
  "deployedLinkReferences": {}
}