{
  "_format": "hh-sol-artifact-1",
  "contractName": "ICO",
  "sourceName": "contracts/ICO.sol",
  "abi": [
    {
      "inputs": [
        {
          "internalType": "contract ICOToken",
          "name": "_token",
          "type": "address"
        },
        {
          "internalType": "uint256",
          "name": "_softCap",
          "type": "uint256"
        },
        {
          "internalType": "uint256",
          "name": "_hardCap",
          "type": "uint256"
        },
        {
          "internalType": "uint256",
          "name": "_minPurchaseAmount",
          "type": "uint256"
        },
        {
          "internalType": "uint256",
          "name": "_maxPurchaseAmount",
          "type": "uint256"
        },
        {
          "internalType": "uint256",
          "name": "_startTime",
          "type": "uint256"
        },
        {
          "internalType": "uint256",
          "name": "_endTime",
          "type": "uint256"
        }
      ],
      "stateMutability": "nonpayable",
      "type": "constructor"
    },
    {
      "anonymous": false,
      "inputs": [
        {
          "indexed": true,
          "internalType": "address",
          "name": "to",
          "type": "address"
        },
        {
          "indexed": false,
          "internalType": "uint256",
          "name": "value",
          "type": "uint256"
        }
      ],
      "name": "Claim",
      "type": "event"
    },
    {
      "anonymous": false,
      "inputs": [
        {
          "indexed": true,
          "internalType": "address",
          "name": "from",
          "type": "address"
        },
        {
          "indexed": false,
          "internalType": "uint256",
          "name": "value",
          "type": "uint256"
        }
      ],
      "name": "Deposit",
      "type": "event"
    },
    {
      "anonymous": false,
      "inputs": [
        {
          "indexed": true,
          "internalType": "address",
          "name": "to",
          "type": "address"
        },
        {
          "indexed": false,
          "internalType": "uint256",
          "name": "value",
          "type": "uint256"
        }
      ],
      "name": "Withdraw",
      "type": "event"
    },
    {
      "inputs": [],
      "name": "claimTokens",
      "outputs": [],
      "stateMutability": "nonpayable",
      "type": "function"
    },
    {
      "inputs": [
        {
          "internalType": "address",
          "name": "",
          "type": "address"
        }
      ],
      "name": "deposit",
      "outputs": [
        {
          "internalType": "uint256",
          "name": "",
          "type": "uint256"
        }
      ],
      "stateMutability": "view",
      "type": "function"
    },
    {
      "inputs": [],
      "name": "depositFunds",
      "outputs": [],
      "stateMutability": "payable",
      "type": "function"
    },
    {
      "inputs": [],
      "name": "endTime",
      "outputs": [
        {
          "internalType": "uint256",
          "name": "",
          "type": "uint256"
        }
      ],
      "stateMutability": "view",
      "type": "function"
    },
    {
      "inputs": [],
      "name": "hardCap",
      "outputs": [
        {
          "internalType": "uint256",
          "name": "",
          "type": "uint256"
        }
      ],
      "stateMutability": "view",
      "type": "function"
    },
    {
      "inputs": [],
      "name": "isICOActive",
      "outputs": [
        {
          "internalType": "bool",
          "name": "",
          "type": "bool"
        }
      ],
      "stateMutability": "view",
      "type": "function"
    },
    {
      "inputs": [],
      "name": "maxPurchaseAmount",
      "outputs": [
        {
          "internalType": "uint256",
          "name": "",
          "type": "uint256"
        }
      ],
      "stateMutability": "view",
      "type": "function"
    },
    {
      "inputs": [],
      "name": "minPurchaseAmount",
      "outputs": [
        {
          "internalType": "uint256",
          "name": "",
          "type": "uint256"
        }
      ],
      "stateMutability": "view",
      "type": "function"
    },
    {
      "inputs": [],
      "name": "owner",
      "outputs": [
        {
          "internalType": "address",
          "name": "",
          "type": "address"
        }
      ],
      "stateMutability": "view",
      "type": "function"
    },
    {
      "inputs": [],
      "name": "softCap",
      "outputs": [
        {
          "internalType": "uint256",
          "name": "",
          "type": "uint256"
        }
      ],
      "stateMutability": "view",
      "type": "function"
    },
    {
      "inputs": [],
      "name": "startTime",
      "outputs": [
        {
          "internalType": "uint256",
          "name": "",
          "type": "uint256"
        }
      ],
      "stateMutability": "view",
      "type": "function"
    },
    {
      "inputs": [],
      "name": "token",
      "outputs": [
        {
          "internalType": "contract ICOToken",
          "name": "",
          "type": "address"
        }
      ],
      "stateMutability": "view",
      "type": "function"
    },
    {
      "inputs": [],
      "name": "withdrawFunds",
      "outputs": [],
      "stateMutability": "nonpayable",
      "type": "function"
    }
  ],
  "bytecode": "0x60806040523480156200001157600080fd5b5060405162001318380380620013188339818101604052810190620000379190620001a8565b866000806101000a81548173ffffffffffffffffffffffffffffffffffffffff021916908373ffffffffffffffffffffffffffffffffffffffff16021790555033600160006101000a81548173ffffffffffffffffffffffffffffffffffffffff021916908373ffffffffffffffffffffffffffffffffffffffff160217905550856003819055508460048190555083600581905550826006819055508160078190555080600881905550505050505050506200025b565b600080fd5b600073ffffffffffffffffffffffffffffffffffffffff82169050919050565b60006200012182620000f4565b9050919050565b6000620001358262000114565b9050919050565b620001478162000128565b81146200015357600080fd5b50565b60008151905062000167816200013c565b92915050565b6000819050919050565b62000182816200016d565b81146200018e57600080fd5b50565b600081519050620001a28162000177565b92915050565b600080600080600080600060e0888a031215620001ca57620001c9620000ef565b5b6000620001da8a828b0162000156565b9750506020620001ed8a828b0162000191565b9650506040620002008a828b0162000191565b9550506060620002138a828b0162000191565b9450506080620002268a828b0162000191565b93505060a0620002398a828b0162000191565b92505060c06200024c8a828b0162000191565b91505092959891949750929550565b6110ad806200026b6000396000f3fe6080604052600436106100c25760003560e01c8063b47dbf221161007f578063f6933c7d11610059578063f6933c7d14610213578063f952fcad1461023e578063fb86a40414610269578063fc0c546a14610294576100c2565b8063b47dbf22146101a1578063e2c41dbc146101cc578063f340fa01146101d6576100c2565b806324600fc3146100c75780633197cbb6146100de57806348c54b9d1461010957806378e97925146101205780638da5cb5b1461014b578063906a26e014610176575b600080fd5b3480156100d357600080fd5b506100dc6102bf565b005b3480156100ea57600080fd5b506100f36104a1565b6040516101009190610984565b60405180910390f35b34801561011557600080fd5b5061011e6104a7565b005b34801561012c57600080fd5b50610135610711565b6040516101429190610984565b60405180910390f35b34801561015757600080fd5b50610160610717565b60405161016d91906109e0565b60405180910390f35b34801561018257600080fd5b5061018b61073d565b6040516101989190610984565b60405180910390f35b3480156101ad57600080fd5b506101b6610743565b6040516101c39190610984565b60405180910390f35b6101d4610749565b005b3480156101e257600080fd5b506101fd60048036038101906101f89190610a2c565b610910565b60405161020a9190610984565b60405180910390f35b34801561021f57600080fd5b50610228610928565b6040516102359190610a74565b60405180910390f35b34801561024a57600080fd5b5061025361093b565b6040516102609190610984565b60405180910390f35b34801561027557600080fd5b5061027e610941565b60405161028b9190610984565b60405180910390f35b3480156102a057600080fd5b506102a9610947565b6040516102b69190610aee565b60405180910390f35b6008544211610303576040517f08c379a00000000000000000000000000000000000000000000000000000000081526004016102fa90610b66565b60405180910390fd5b6003544710610347576040517f08c379a000000000000000000000000000000000000000000000000000000000815260040161033e90610bd2565b60405180910390fd5b3373ffffffffffffffffffffffffffffffffffffffff166108fc600260003373ffffffffffffffffffffffffffffffffffffffff1673ffffffffffffffffffffffffffffffffffffffff168152602001908152602001600020549081150290604051600060405180830381858888f193505050501580156103cc573d6000803e3d6000fd5b506000600260003373ffffffffffffffffffffffffffffffffffffffff1673ffffffffffffffffffffffffffffffffffffffff168152602001908152602001600020819055503373ffffffffffffffffffffffffffffffffffffffff167f884edad9ce6fa2440d8a54cc123490eb96d2768479d49ff9c7366125a9424364600260003373ffffffffffffffffffffffffffffffffffffffff1673ffffffffffffffffffffffffffffffffffffffff168152602001908152602001600020546040516104979190610984565b60405180910390a2565b60085481565b6008544211806104b957506004544710155b6104f8576040517f08c379a00000000000000000000000000000000000000000000000000000000081526004016104ef90610c64565b60405180910390fd5b60035447101561053d576040517f08c379a000000000000000000000000000000000000000000000000000000000815260040161053490610cd0565b60405180910390fd5b6000600260003373ffffffffffffffffffffffffffffffffffffffff1673ffffffffffffffffffffffffffffffffffffffff168152602001908152602001600020549050600081116105c4576040517f08c379a00000000000000000000000000000000000000000000000000000000081526004016105bb90610d62565b60405180910390fd5b6000600260003373ffffffffffffffffffffffffffffffffffffffff1673ffffffffffffffffffffffffffffffffffffffff16815260200190815260200160002081905550600066038d7ea4c680008261061e9190610de0565b905060008054906101000a900473ffffffffffffffffffffffffffffffffffffffff1673ffffffffffffffffffffffffffffffffffffffff1663a9059cbb33836040518363ffffffff1660e01b815260040161067b929190610e11565b6020604051808303816000875af115801561069a573d6000803e3d6000fd5b505050506040513d601f19601f820116820180604052508101906106be9190610e66565b503373ffffffffffffffffffffffffffffffffffffffff167f47cee97cb7acd717b3c0aa1435d004cd5b3c8c57d70dbceb4e4458bbd60e39d4826040516107059190610984565b60405180910390a25050565b60075481565b600160009054906101000a900473ffffffffffffffffffffffffffffffffffffffff1681565b60035481565b60055481565b60075442101561078e576040517f08c379a000000000000000000000000000000000000000000000000000000000815260040161078590610edf565b60405180910390fd5b6008544211156107d3576040517f08c379a00000000000000000000000000000000000000000000000000000000081526004016107ca90610f4b565b60405180910390fd5b6004544710610817576040517f08c379a000000000000000000000000000000000000000000000000000000000815260040161080e90610fb7565b60405180910390fd5b600554341015801561082b57506006543411155b61086a576040517f08c379a000000000000000000000000000000000000000000000000000000000815260040161086190611023565b60405180910390fd5b34600260003373ffffffffffffffffffffffffffffffffffffffff1673ffffffffffffffffffffffffffffffffffffffff16815260200190815260200160002060008282546108b99190611043565b925050819055503373ffffffffffffffffffffffffffffffffffffffff167fe1fffcc4923d04b559f4d29a8bfc6cda04eb5b0d3c460751c2402c5c5cc9109c346040516109069190610984565b60405180910390a2565b60026020528060005260406000206000915090505481565b600960009054906101000a900460ff1681565b60065481565b60045481565b60008054906101000a900473ffffffffffffffffffffffffffffffffffffffff1681565b6000819050919050565b61097e8161096b565b82525050565b60006020820190506109996000830184610975565b92915050565b600073ffffffffffffffffffffffffffffffffffffffff82169050919050565b60006109ca8261099f565b9050919050565b6109da816109bf565b82525050565b60006020820190506109f560008301846109d1565b92915050565b600080fd5b610a09816109bf565b8114610a1457600080fd5b50565b600081359050610a2681610a00565b92915050565b600060208284031215610a4257610a416109fb565b5b6000610a5084828501610a17565b91505092915050565b60008115159050919050565b610a6e81610a59565b82525050565b6000602082019050610a896000830184610a65565b92915050565b6000819050919050565b6000610ab4610aaf610aaa8461099f565b610a8f565b61099f565b9050919050565b6000610ac682610a99565b9050919050565b6000610ad882610abb565b9050919050565b610ae881610acd565b82525050565b6000602082019050610b036000830184610adf565b92915050565b600082825260208201905092915050565b7f49434f20686173206e6f7420656e6465642e0000000000000000000000000000600082015250565b6000610b50601283610b09565b9150610b5b82610b1a565b602082019050919050565b60006020820190508181036000830152610b7f81610b43565b9050919050565b7f536f66742063617020726561636865642e000000000000000000000000000000600082015250565b6000610bbc601183610b09565b9150610bc782610b86565b602082019050919050565b60006020820190508181036000830152610beb81610baf565b9050919050565b7f49434f20686173206e6f7420656e646564206f72204861726420636170206e6f60008201527f7420726561636865642e00000000000000000000000000000000000000000000602082015250565b6000610c4e602a83610b09565b9150610c5982610bf2565b604082019050919050565b60006020820190508181036000830152610c7d81610c41565b9050919050565b7f536f667420636170206e6f7420726561636865642e0000000000000000000000600082015250565b6000610cba601583610b09565b9150610cc582610c84565b602082019050919050565b60006020820190508181036000830152610ce981610cad565b9050919050565b7f4e6f206465706f73697420666f756e6420666f7220746869732061646472657360008201527f732e000000000000000000000000000000000000000000000000000000000000602082015250565b6000610d4c602283610b09565b9150610d5782610cf0565b604082019050919050565b60006020820190508181036000830152610d7b81610d3f565b9050919050565b7f4e487b7100000000000000000000000000000000000000000000000000000000600052601260045260246000fd5b7f4e487b7100000000000000000000000000000000000000000000000000000000600052601160045260246000fd5b6000610deb8261096b565b9150610df68361096b565b925082610e0657610e05610d82565b5b828204905092915050565b6000604082019050610e2660008301856109d1565b610e336020830184610975565b9392505050565b610e4381610a59565b8114610e4e57600080fd5b50565b600081519050610e6081610e3a565b92915050565b600060208284031215610e7c57610e7b6109fb565b5b6000610e8a84828501610e51565b91505092915050565b7f49434f20686173206e6f742079657420737461727465642e0000000000000000600082015250565b6000610ec9601883610b09565b9150610ed482610e93565b602082019050919050565b60006020820190508181036000830152610ef881610ebc565b9050919050565b7f49434f2068617320656e6465642e000000000000000000000000000000000000600082015250565b6000610f35600e83610b09565b9150610f4082610eff565b602082019050919050565b60006020820190508181036000830152610f6481610f28565b9050919050565b7f486172642063617020726561636865642e000000000000000000000000000000600082015250565b6000610fa1601183610b09565b9150610fac82610f6b565b602082019050919050565b60006020820190508181036000830152610fd081610f94565b9050919050565b7f496e76616c696420707572636861736520616d6f756e742e0000000000000000600082015250565b600061100d601883610b09565b915061101882610fd7565b602082019050919050565b6000602082019050818103600083015261103c81611000565b9050919050565b600061104e8261096b565b91506110598361096b565b925082820190508082111561107157611070610db1565b5b9291505056fea264697066735822122024c8b5539e060efb89dd2de44114daad5292d4cb7f08bf64c7df05e878406b7564736f6c63430008120033",
  "linkReferences": {},
  "deployedLinkReferences": {}
}