{
  "_format": "hh-sol-artifact-1",
  "contractName": "ICO",
  "sourceName": "contracts/ICO.sol",
  "abi": [
    {
      "inputs": [
        {
          "internalType": "address",
          "name": "_token",
          "type": "address"
        },
        {
          "internalType": "uint256",
          "name": "_softcap",
          "type": "uint256"
        },
        {
          "internalType": "uint256",
          "name": "_hardcap",
          "type": "uint256"
        },
        {
          "internalType": "uint256",
          "name": "_minPurchase",
          "type": "uint256"
        },
        {
          "internalType": "uint256",
          "name": "_maxPurchase",
          "type": "uint256"
        },
        {
          "internalType": "uint256",
          "name": "_rate",
          "type": "uint256"
        },
        {
          "internalType": "uint256",
          "name": "_startTime",
          "type": "uint256"
        },
        {
          "internalType": "uint256",
          "name": "_endTime",
          "type": "uint256"
        }
      ],
      "stateMutability": "nonpayable",
      "type": "constructor"
    },
    {
      "anonymous": false,
      "inputs": [
        {
          "indexed": true,
          "internalType": "address",
          "name": "investor",
          "type": "address"
        },
        {
          "indexed": false,
          "internalType": "uint256",
          "name": "amount",
          "type": "uint256"
        }
      ],
      "name": "Claim",
      "type": "event"
    },
    {
      "anonymous": false,
      "inputs": [
        {
          "indexed": true,
          "internalType": "address",
          "name": "investor",
          "type": "address"
        },
        {
          "indexed": false,
          "internalType": "uint256",
          "name": "amount",
          "type": "uint256"
        }
      ],
      "name": "Deposit",
      "type": "event"
    },
    {
      "anonymous": false,
      "inputs": [
        {
          "indexed": true,
          "internalType": "address",
          "name": "previousOwner",
          "type": "address"
        },
        {
          "indexed": true,
          "internalType": "address",
          "name": "newOwner",
          "type": "address"
        }
      ],
      "name": "OwnershipTransferred",
      "type": "event"
    },
    {
      "anonymous": false,
      "inputs": [
        {
          "indexed": true,
          "internalType": "address",
          "name": "investor",
          "type": "address"
        },
        {
          "indexed": false,
          "internalType": "uint256",
          "name": "amount",
          "type": "uint256"
        }
      ],
      "name": "Withdraw",
      "type": "event"
    },
    {
      "inputs": [],
      "name": "claim",
      "outputs": [],
      "stateMutability": "nonpayable",
      "type": "function"
    },
    {
      "inputs": [],
      "name": "deposit",
      "outputs": [],
      "stateMutability": "payable",
      "type": "function"
    },
    {
      "inputs": [
        {
          "internalType": "address",
          "name": "",
          "type": "address"
        }
      ],
      "name": "deposits",
      "outputs": [
        {
          "internalType": "uint256",
          "name": "",
          "type": "uint256"
        }
      ],
      "stateMutability": "view",
      "type": "function"
    },
    {
      "inputs": [],
      "name": "endTime",
      "outputs": [
        {
          "internalType": "uint256",
          "name": "",
          "type": "uint256"
        }
      ],
      "stateMutability": "view",
      "type": "function"
    },
    {
      "inputs": [],
      "name": "hardcap",
      "outputs": [
        {
          "internalType": "uint256",
          "name": "",
          "type": "uint256"
        }
      ],
      "stateMutability": "view",
      "type": "function"
    },
    {
      "inputs": [],
      "name": "maxPurchase",
      "outputs": [
        {
          "internalType": "uint256",
          "name": "",
          "type": "uint256"
        }
      ],
      "stateMutability": "view",
      "type": "function"
    },
    {
      "inputs": [],
      "name": "minPurchase",
      "outputs": [
        {
          "internalType": "uint256",
          "name": "",
          "type": "uint256"
        }
      ],
      "stateMutability": "view",
      "type": "function"
    },
    {
      "inputs": [],
      "name": "owner",
      "outputs": [
        {
          "internalType": "address",
          "name": "",
          "type": "address"
        }
      ],
      "stateMutability": "view",
      "type": "function"
    },
    {
      "inputs": [],
      "name": "rate",
      "outputs": [
        {
          "internalType": "uint256",
          "name": "",
          "type": "uint256"
        }
      ],
      "stateMutability": "view",
      "type": "function"
    },
    {
      "inputs": [],
      "name": "renounceOwnership",
      "outputs": [],
      "stateMutability": "nonpayable",
      "type": "function"
    },
    {
      "inputs": [],
      "name": "softcap",
      "outputs": [
        {
          "internalType": "uint256",
          "name": "",
          "type": "uint256"
        }
      ],
      "stateMutability": "view",
      "type": "function"
    },
    {
      "inputs": [],
      "name": "startTime",
      "outputs": [
        {
          "internalType": "uint256",
          "name": "",
          "type": "uint256"
        }
      ],
      "stateMutability": "view",
      "type": "function"
    },
    {
      "inputs": [],
      "name": "token",
      "outputs": [
        {
          "internalType": "contract ICOToken",
          "name": "",
          "type": "address"
        }
      ],
      "stateMutability": "view",
      "type": "function"
    },
    {
      "inputs": [
        {
          "internalType": "address",
          "name": "newOwner",
          "type": "address"
        }
      ],
      "name": "transferOwnership",
      "outputs": [],
      "stateMutability": "nonpayable",
      "type": "function"
    },
    {
      "inputs": [],
      "name": "withdraw",
      "outputs": [],
      "stateMutability": "nonpayable",
      "type": "function"
    }
  ],
  "bytecode": "0x608060405234801561001057600080fd5b50604051610ead380380610ead83398101604081905261002f916100d7565b61003f61003a610083565b610087565b600180546001600160a01b0319166001600160a01b03999099169890981790975560039590955560049390935560059190915560065560075560085560095561014b565b3390565b600080546001600160a01b038381166001600160a01b0319831681178455604051919092169283917f8be0079c531659141344cd1fd0a4f28419497f9722a3daafe3b4186f6b6457e09190a35050565b600080600080600080600080610100898b0312156100f3578384fd5b88516001600160a01b0381168114610109578485fd5b809850506020890151965060408901519550606089015194506080890151935060a0890151925060c0890151915060e089015190509295985092959890939650565b610d538061015a6000396000f3fe6080604052600436106100e85760003560e01c80638da5cb5b1161008a578063f2fde38b11610059578063f2fde38b146101ec578063f89be5931461020c578063fc0c546a14610221578063fc7e286d14610236576100e8565b80638da5cb5b14610198578063977b055b146101ba578063b071cbe6146101cf578063d0e30db0146101e4576100e8565b80633ccfd60b116100c65780633ccfd60b146101425780634e71d92d14610159578063715018a61461016e57806378e9792514610183576100e8565b80632c4e722e146100ed5780633197cbb61461011857806333b5b62e1461012d575b600080fd5b3480156100f957600080fd5b50610102610256565b60405161010f9190610caf565b60405180910390f35b34801561012457600080fd5b5061010261025c565b34801561013957600080fd5b50610102610262565b34801561014e57600080fd5b50610157610268565b005b34801561016557600080fd5b50610157610365565b34801561017a57600080fd5b50610157610516565b34801561018f57600080fd5b50610102610561565b3480156101a457600080fd5b506101ad610567565b60405161010f919061093e565b3480156101c657600080fd5b50610102610576565b3480156101db57600080fd5b5061010261057c565b610157610582565b3480156101f857600080fd5b506101576102073660046108d8565b6107ec565b34801561021857600080fd5b5061010261085d565b34801561022d57600080fd5b506101ad610863565b34801561024257600080fd5b506101026102513660046108d8565b610872565b60075481565b60095481565b60055481565b60095442116102925760405162461bcd60e51b815260040161028990610b41565b60405180910390fd5b60035447106102b35760405162461bcd60e51b815260040161028990610a4b565b336000908152600260205260409020546102df5760405162461bcd60e51b815260040161028990610997565b33600081815260026020526040808220805490839055905190929183156108fc02918491818181858888f19350505050158015610320573d6000803e3d6000fd5b50336001600160a01b03167f884edad9ce6fa2440d8a54cc123490eb96d2768479d49ff9c7366125a94243648260405161035a9190610caf565b60405180910390a250565b60095442118061037757506004544710155b6103935760405162461bcd60e51b815260040161028990610ba2565b6003544710156103b55760405162461bcd60e51b815260040161028990610c3f565b6001546040516370a0823160e01b81526000916001600160a01b0316906370a08231906103e690309060040161093e565b60206040518083038186803b1580156103fe57600080fd5b505afa158015610412573d6000803e3d6000fd5b505050506040513d601f19601f820116820180604052508101906104369190610926565b9050600081116104585760405162461bcd60e51b81526004016102899061096b565b60015460405163a9059cbb60e01b81526001600160a01b039091169063a9059cbb9061048a9033908590600401610952565b602060405180830381600087803b1580156104a457600080fd5b505af11580156104b8573d6000803e3d6000fd5b505050506040513d601f19601f820116820180604052508101906104dc9190610906565b50336001600160a01b03167f47cee97cb7acd717b3c0aa1435d004cd5b3c8c57d70dbceb4e4458bbd60e39d48260405161035a9190610caf565b61051e610884565b6001600160a01b031661052f610567565b6001600160a01b0316146105555760405162461bcd60e51b815260040161028990610b6d565b61055f6000610888565b565b60085481565b6000546001600160a01b031690565b60065481565b60045481565b6008544210156105a45760405162461bcd60e51b8152600401610289906109ce565b6009544211156105c65760405162461bcd60e51b815260040161028990610bec565b60045447106105e75760405162461bcd60e51b815260040161028990610c14565b6005543410156106095760405162461bcd60e51b815260040161028990610af6565b60065434111561062b5760405162461bcd60e51b815260040161028990610aab565b344760045461063a9190610cf0565b116106575760405162461bcd60e51b815260040161028990610a74565b6000600754346106679190610cd0565b6001546040516370a0823160e01b815291925082916001600160a01b03909116906370a082319061069c90309060040161093e565b60206040518083038186803b1580156106b457600080fd5b505afa1580156106c8573d6000803e3d6000fd5b505050506040513d601f19601f820116820180604052508101906106ec9190610926565b101561070a5760405162461bcd60e51b815260040161028990610c6c565b3360009081526002602052604081208054349290610729908490610cb8565b909155505060015460405163a9059cbb60e01b81526001600160a01b039091169063a9059cbb906107609033908590600401610952565b602060405180830381600087803b15801561077a57600080fd5b505af115801561078e573d6000803e3d6000fd5b505050506040513d601f19601f820116820180604052508101906107b29190610906565b50336001600160a01b03167fe1fffcc4923d04b559f4d29a8bfc6cda04eb5b0d3c460751c2402c5c5cc9109c3460405161035a9190610caf565b6107f4610884565b6001600160a01b0316610805610567565b6001600160a01b03161461082b5760405162461bcd60e51b815260040161028990610b6d565b6001600160a01b0381166108515760405162461bcd60e51b815260040161028990610a05565b61085a81610888565b50565b60035481565b6001546001600160a01b031681565b60026020526000908152604090205481565b3390565b600080546001600160a01b038381166001600160a01b0319831681178455604051919092169283917f8be0079c531659141344cd1fd0a4f28419497f9722a3daafe3b4186f6b6457e09190a35050565b6000602082840312156108e9578081fd5b81356001600160a01b03811681146108ff578182fd5b9392505050565b600060208284031215610917578081fd5b815180151581146108ff578182fd5b600060208284031215610937578081fd5b5051919050565b6001600160a01b0391909116815260200190565b6001600160a01b03929092168252602082015260400190565b6020808252601290820152714e6f20746f6b656e7320746f20636c61696d60701b604082015260600190565b60208082526017908201527f4e6f206465706f7369747320746f207769746864726177000000000000000000604082015260600190565b60208082526018908201527f49434f20686173206e6f742079657420737461727465642e0000000000000000604082015260600190565b60208082526026908201527f4f776e61626c653a206e6577206f776e657220697320746865207a65726f206160408201526564647265737360d01b606082015260800190565b6020808252600f908201526e14dbd99d18d85c081c995858da1959608a1b604082015260600190565b60208082526017908201527f416d6f756e742065786365656473204861726420636170000000000000000000604082015260600190565b6020808252602b908201527f416d6f756e74206973206d6f7265207468616e206d6178696d756d207075726360408201526a1a185cd948185b5bdd5b9d60aa1b606082015260800190565b6020808252602b908201527f416d6f756e74206973206c657373207468616e206d696e696d756d207075726360408201526a1a185cd948185b5bdd5b9d60aa1b606082015260800190565b60208082526012908201527124a1a7903430b9903737ba1032b73232b21760711b604082015260600190565b6020808252818101527f4f776e61626c653a2063616c6c6572206973206e6f7420746865206f776e6572604082015260600190565b6020808252602a908201527f49434f20686173206e6f7420656e646564206f72204861726420636170206e6f6040820152693a103932b0b1b432b21760b11b606082015260800190565b6020808252600e908201526d24a1a7903430b99032b73232b21760911b604082015260600190565b6020808252601190820152702430b9321031b0b8103932b0b1b432b21760791b604082015260600190565b60208082526013908201527214dbd99d18d85c081b9bdd081c995858da1959606a1b604082015260600190565b60208082526023908201527f496e73756666696369656e7420746f6b656e7320696e2049434f20636f6e74726040820152621858dd60ea1b606082015260800190565b90815260200190565b60008219821115610ccb57610ccb610d07565b500190565b600082610ceb57634e487b7160e01b81526012600452602481fd5b500490565b600082821015610d0257610d02610d07565b500390565b634e487b7160e01b600052601160045260246000fdfea264697066735822122011caf10d8ac955e960925caefb1a9edfa528556ab7538331d8a692fc5877553164736f6c63430008000033",
  "linkReferences": {},
  "deployedLinkReferences": {}
}