{
  "_format": "hh-sol-artifact-1",
  "contractName": "ICO",
  "sourceName": "contracts/ICO.sol",
  "abi": [
    {
      "inputs": [
        {
          "internalType": "contract ICOToken",
          "name": "_token",
          "type": "address"
        },
        {
          "internalType": "uint256",
          "name": "_softCap",
          "type": "uint256"
        },
        {
          "internalType": "uint256",
          "name": "_hardCap",
          "type": "uint256"
        },
        {
          "internalType": "uint256",
          "name": "_minPurchaseAmount",
          "type": "uint256"
        },
        {
          "internalType": "uint256",
          "name": "_maxPurchaseAmount",
          "type": "uint256"
        }
      ],
      "stateMutability": "nonpayable",
      "type": "constructor"
    },
    {
      "anonymous": false,
      "inputs": [
        {
          "indexed": true,
          "internalType": "address",
          "name": "to",
          "type": "address"
        },
        {
          "indexed": false,
          "internalType": "uint256",
          "name": "value",
          "type": "uint256"
        }
      ],
      "name": "Claim",
      "type": "event"
    },
    {
      "anonymous": false,
      "inputs": [
        {
          "indexed": true,
          "internalType": "address",
          "name": "from",
          "type": "address"
        },
        {
          "indexed": false,
          "internalType": "uint256",
          "name": "value",
          "type": "uint256"
        }
      ],
      "name": "Deposit",
      "type": "event"
    },
    {
      "anonymous": false,
      "inputs": [
        {
          "indexed": true,
          "internalType": "address",
          "name": "to",
          "type": "address"
        },
        {
          "indexed": false,
          "internalType": "uint256",
          "name": "value",
          "type": "uint256"
        }
      ],
      "name": "Withdraw",
      "type": "event"
    },
    {
      "inputs": [],
      "name": "claimTokens",
      "outputs": [],
      "stateMutability": "nonpayable",
      "type": "function"
    },
    {
      "inputs": [
        {
          "internalType": "address",
          "name": "",
          "type": "address"
        }
      ],
      "name": "deposit",
      "outputs": [
        {
          "internalType": "uint256",
          "name": "",
          "type": "uint256"
        }
      ],
      "stateMutability": "view",
      "type": "function"
    },
    {
      "inputs": [],
      "name": "depositFunds",
      "outputs": [],
      "stateMutability": "payable",
      "type": "function"
    },
    {
      "inputs": [],
      "name": "endICO",
      "outputs": [],
      "stateMutability": "nonpayable",
      "type": "function"
    },
    {
      "inputs": [],
      "name": "hardCap",
      "outputs": [
        {
          "internalType": "uint256",
          "name": "",
          "type": "uint256"
        }
      ],
      "stateMutability": "view",
      "type": "function"
    },
    {
      "inputs": [],
      "name": "isICOActive",
      "outputs": [
        {
          "internalType": "bool",
          "name": "",
          "type": "bool"
        }
      ],
      "stateMutability": "view",
      "type": "function"
    },
    {
      "inputs": [],
      "name": "maxPurchaseAmount",
      "outputs": [
        {
          "internalType": "uint256",
          "name": "",
          "type": "uint256"
        }
      ],
      "stateMutability": "view",
      "type": "function"
    },
    {
      "inputs": [],
      "name": "minPurchaseAmount",
      "outputs": [
        {
          "internalType": "uint256",
          "name": "",
          "type": "uint256"
        }
      ],
      "stateMutability": "view",
      "type": "function"
    },
    {
      "inputs": [],
      "name": "owner",
      "outputs": [
        {
          "internalType": "address",
          "name": "",
          "type": "address"
        }
      ],
      "stateMutability": "view",
      "type": "function"
    },
    {
      "inputs": [],
      "name": "softCap",
      "outputs": [
        {
          "internalType": "uint256",
          "name": "",
          "type": "uint256"
        }
      ],
      "stateMutability": "view",
      "type": "function"
    },
    {
      "inputs": [],
      "name": "token",
      "outputs": [
        {
          "internalType": "contract ICOToken",
          "name": "",
          "type": "address"
        }
      ],
      "stateMutability": "view",
      "type": "function"
    },
    {
      "inputs": [],
      "name": "withdrawFunds",
      "outputs": [],
      "stateMutability": "nonpayable",
      "type": "function"
    }
  ],
  "bytecode": "0x60806040523480156200001157600080fd5b506040516200118c3803806200118c8339818101604052810190620000379190620001b3565b846000806101000a81548173ffffffffffffffffffffffffffffffffffffffff021916908373ffffffffffffffffffffffffffffffffffffffff16021790555033600160006101000a81548173ffffffffffffffffffffffffffffffffffffffff021916908373ffffffffffffffffffffffffffffffffffffffff160217905550836003819055508260048190555081600581905550806006819055506001600760006101000a81548160ff02191690831515021790555050505050506200023b565b600080fd5b600073ffffffffffffffffffffffffffffffffffffffff82169050919050565b60006200012c82620000ff565b9050919050565b600062000140826200011f565b9050919050565b620001528162000133565b81146200015e57600080fd5b50565b600081519050620001728162000147565b92915050565b6000819050919050565b6200018d8162000178565b81146200019957600080fd5b50565b600081519050620001ad8162000182565b92915050565b600080600080600060a08688031215620001d257620001d1620000fa565b5b6000620001e28882890162000161565b9550506020620001f5888289016200019c565b945050604062000208888289016200019c565b93505060606200021b888289016200019c565b92505060806200022e888289016200019c565b9150509295509295909350565b610f41806200024b6000396000f3fe6080604052600436106100a75760003560e01c8063e2c41dbc11610064578063e2c41dbc14610172578063f340fa011461017c578063f6933c7d146101b9578063f952fcad146101e4578063fb86a4041461020f578063fc0c546a1461023a576100a7565b806324600fc3146100ac57806348c54b9d146100c35780634f248409146100da5780638da5cb5b146100f1578063906a26e01461011c578063b47dbf2214610147575b600080fd5b3480156100b857600080fd5b506100c1610265565b005b3480156100cf57600080fd5b506100d8610465565b005b3480156100e657600080fd5b506100ef6106b5565b005b3480156100fd57600080fd5b50610106610762565b6040516101139190610978565b60405180910390f35b34801561012857600080fd5b50610131610788565b60405161013e91906109ac565b60405180910390f35b34801561015357600080fd5b5061015c61078e565b60405161016991906109ac565b60405180910390f35b61017a610794565b005b34801561018857600080fd5b506101a3600480360381019061019e91906109f8565b6108dc565b6040516101b091906109ac565b60405180910390f35b3480156101c557600080fd5b506101ce6108f4565b6040516101db9190610a40565b60405180910390f35b3480156101f057600080fd5b506101f9610907565b60405161020691906109ac565b60405180910390f35b34801561021b57600080fd5b5061022461090d565b60405161023191906109ac565b60405180910390f35b34801561024657600080fd5b5061024f610913565b60405161025c9190610aba565b60405180910390f35b600160009054906101000a900473ffffffffffffffffffffffffffffffffffffffff1673ffffffffffffffffffffffffffffffffffffffff163373ffffffffffffffffffffffffffffffffffffffff16146102f5576040517f08c379a00000000000000000000000000000000000000000000000000000000081526004016102ec90610b58565b60405180910390fd5b600760009054906101000a900460ff1615610345576040517f08c379a000000000000000000000000000000000000000000000000000000000815260040161033c90610bc4565b60405180910390fd5b60035447101561038a576040517f08c379a000000000000000000000000000000000000000000000000000000000815260040161038190610c30565b60405180910390fd5b600160009054906101000a900473ffffffffffffffffffffffffffffffffffffffff1673ffffffffffffffffffffffffffffffffffffffff166108fc479081150290604051600060405180830381858888f193505050501580156103f2573d6000803e3d6000fd5b50600160009054906101000a900473ffffffffffffffffffffffffffffffffffffffff1673ffffffffffffffffffffffffffffffffffffffff167f884edad9ce6fa2440d8a54cc123490eb96d2768479d49ff9c7366125a94243644760405161045b91906109ac565b60405180910390a2565b600760009054906101000a900460ff16156104b5576040517f08c379a00000000000000000000000000000000000000000000000000000000081526004016104ac90610bc4565b60405180910390fd5b60035447106104f9576040517f08c379a00000000000000000000000000000000000000000000000000000000081526004016104f090610c9c565b60405180910390fd5b6000600260003373ffffffffffffffffffffffffffffffffffffffff1673ffffffffffffffffffffffffffffffffffffffff16815260200190815260200160002054905060008111610580576040517f08c379a000000000000000000000000000000000000000000000000000000000815260040161057790610d2e565b60405180910390fd5b6000600260003373ffffffffffffffffffffffffffffffffffffffff1673ffffffffffffffffffffffffffffffffffffffff1681526020019081526020016000208190555060008054906101000a900473ffffffffffffffffffffffffffffffffffffffff1673ffffffffffffffffffffffffffffffffffffffff1663a9059cbb33836040518363ffffffff1660e01b8152600401610620929190610d4e565b6020604051808303816000875af115801561063f573d6000803e3d6000fd5b505050506040513d601f19601f820116820180604052508101906106639190610da3565b503373ffffffffffffffffffffffffffffffffffffffff167f47cee97cb7acd717b3c0aa1435d004cd5b3c8c57d70dbceb4e4458bbd60e39d4826040516106aa91906109ac565b60405180910390a250565b600160009054906101000a900473ffffffffffffffffffffffffffffffffffffffff1673ffffffffffffffffffffffffffffffffffffffff163373ffffffffffffffffffffffffffffffffffffffff1614610745576040517f08c379a000000000000000000000000000000000000000000000000000000000815260040161073c90610b58565b60405180910390fd5b6000600760006101000a81548160ff021916908315150217905550565b600160009054906101000a900473ffffffffffffffffffffffffffffffffffffffff1681565b60035481565b60055481565b600760009054906101000a900460ff166107e3576040517f08c379a00000000000000000000000000000000000000000000000000000000081526004016107da90610e1c565b60405180910390fd5b60055434101580156107f757506006543411155b610836576040517f08c379a000000000000000000000000000000000000000000000000000000000815260040161082d90610e88565b60405180910390fd5b34600260003373ffffffffffffffffffffffffffffffffffffffff1673ffffffffffffffffffffffffffffffffffffffff16815260200190815260200160002060008282546108859190610ed7565b925050819055503373ffffffffffffffffffffffffffffffffffffffff167fe1fffcc4923d04b559f4d29a8bfc6cda04eb5b0d3c460751c2402c5c5cc9109c346040516108d291906109ac565b60405180910390a2565b60026020528060005260406000206000915090505481565b600760009054906101000a900460ff1681565b60065481565b60045481565b60008054906101000a900473ffffffffffffffffffffffffffffffffffffffff1681565b600073ffffffffffffffffffffffffffffffffffffffff82169050919050565b600061096282610937565b9050919050565b61097281610957565b82525050565b600060208201905061098d6000830184610969565b92915050565b6000819050919050565b6109a681610993565b82525050565b60006020820190506109c1600083018461099d565b92915050565b600080fd5b6109d581610957565b81146109e057600080fd5b50565b6000813590506109f2816109cc565b92915050565b600060208284031215610a0e57610a0d6109c7565b5b6000610a1c848285016109e3565b91505092915050565b60008115159050919050565b610a3a81610a25565b82525050565b6000602082019050610a556000830184610a31565b92915050565b6000819050919050565b6000610a80610a7b610a7684610937565b610a5b565b610937565b9050919050565b6000610a9282610a65565b9050919050565b6000610aa482610a87565b9050919050565b610ab481610a99565b82525050565b6000602082019050610acf6000830184610aab565b92915050565b600082825260208201905092915050565b7f4f6e6c79206f776e65722063616e2063616c6c20746869732066756e6374696f60008201527f6e2e000000000000000000000000000000000000000000000000000000000000602082015250565b6000610b42602283610ad5565b9150610b4d82610ae6565b604082019050919050565b60006020820190508181036000830152610b7181610b35565b9050919050565b7f49434f206973207374696c6c206163746976652e000000000000000000000000600082015250565b6000610bae601483610ad5565b9150610bb982610b78565b602082019050919050565b60006020820190508181036000830152610bdd81610ba1565b9050919050565b7f536f667420636170206e6f7420726561636865642e0000000000000000000000600082015250565b6000610c1a601583610ad5565b9150610c2582610be4565b602082019050919050565b60006020820190508181036000830152610c4981610c0d565b9050919050565b7f536f66742063617020726561636865642e000000000000000000000000000000600082015250565b6000610c86601183610ad5565b9150610c9182610c50565b602082019050919050565b60006020820190508181036000830152610cb581610c79565b9050919050565b7f4e6f206465706f73697420666f756e6420666f7220746869732061646472657360008201527f732e000000000000000000000000000000000000000000000000000000000000602082015250565b6000610d18602283610ad5565b9150610d2382610cbc565b604082019050919050565b60006020820190508181036000830152610d4781610d0b565b9050919050565b6000604082019050610d636000830185610969565b610d70602083018461099d565b9392505050565b610d8081610a25565b8114610d8b57600080fd5b50565b600081519050610d9d81610d77565b92915050565b600060208284031215610db957610db86109c7565b5b6000610dc784828501610d8e565b91505092915050565b7f49434f206973206e6f74206163746976652e0000000000000000000000000000600082015250565b6000610e06601283610ad5565b9150610e1182610dd0565b602082019050919050565b60006020820190508181036000830152610e3581610df9565b9050919050565b7f496e76616c696420707572636861736520616d6f756e742e0000000000000000600082015250565b6000610e72601883610ad5565b9150610e7d82610e3c565b602082019050919050565b60006020820190508181036000830152610ea181610e65565b9050919050565b7f4e487b7100000000000000000000000000000000000000000000000000000000600052601160045260246000fd5b6000610ee282610993565b9150610eed83610993565b9250828201905080821115610f0557610f04610ea8565b5b9291505056fea2646970667358221220b1d7c6d63de41eb81de8cefa671abeba968bf8480c847b2e75aa0d520e8145d864736f6c63430008120033",
  "linkReferences": {},
  "deployedLinkReferences": {}
}