{
  "_format": "hh-sol-artifact-1",
  "contractName": "ICOToken",
  "sourceName": "contracts/ICOToken.sol",
  "abi": [
    {
      "inputs": [],
      "stateMutability": "nonpayable",
      "type": "constructor"
    },
    {
      "anonymous": false,
      "inputs": [
        {
          "indexed": true,
          "internalType": "address",
          "name": "owner",
          "type": "address"
        },
        {
          "indexed": true,
          "internalType": "address",
          "name": "spender",
          "type": "address"
        },
        {
          "indexed": false,
          "internalType": "uint256",
          "name": "value",
          "type": "uint256"
        }
      ],
      "name": "Approval",
      "type": "event"
    },
    {
      "anonymous": false,
      "inputs": [
        {
          "indexed": true,
          "internalType": "address",
          "name": "previousOwner",
          "type": "address"
        },
        {
          "indexed": true,
          "internalType": "address",
          "name": "newOwner",
          "type": "address"
        }
      ],
      "name": "OwnershipTransferred",
      "type": "event"
    },
    {
      "anonymous": false,
      "inputs": [
        {
          "indexed": true,
          "internalType": "address",
          "name": "from",
          "type": "address"
        },
        {
          "indexed": true,
          "internalType": "address",
          "name": "to",
          "type": "address"
        },
        {
          "indexed": false,
          "internalType": "uint256",
          "name": "value",
          "type": "uint256"
        }
      ],
      "name": "Transfer",
      "type": "event"
    },
    {
      "inputs": [],
      "name": "INITIAL_SUPPLY",
      "outputs": [
        {
          "internalType": "uint256",
          "name": "",
          "type": "uint256"
        }
      ],
      "stateMutability": "view",
      "type": "function"
    },
    {
      "inputs": [
        {
          "internalType": "address",
          "name": "owner",
          "type": "address"
        },
        {
          "internalType": "address",
          "name": "spender",
          "type": "address"
        }
      ],
      "name": "allowance",
      "outputs": [
        {
          "internalType": "uint256",
          "name": "",
          "type": "uint256"
        }
      ],
      "stateMutability": "view",
      "type": "function"
    },
    {
      "inputs": [
        {
          "internalType": "address",
          "name": "spender",
          "type": "address"
        },
        {
          "internalType": "uint256",
          "name": "amount",
          "type": "uint256"
        }
      ],
      "name": "approve",
      "outputs": [
        {
          "internalType": "bool",
          "name": "",
          "type": "bool"
        }
      ],
      "stateMutability": "nonpayable",
      "type": "function"
    },
    {
      "inputs": [
        {
          "internalType": "address",
          "name": "account",
          "type": "address"
        }
      ],
      "name": "balanceOf",
      "outputs": [
        {
          "internalType": "uint256",
          "name": "",
          "type": "uint256"
        }
      ],
      "stateMutability": "view",
      "type": "function"
    },
    {
      "inputs": [],
      "name": "decimals",
      "outputs": [
        {
          "internalType": "uint8",
          "name": "",
          "type": "uint8"
        }
      ],
      "stateMutability": "view",
      "type": "function"
    },
    {
      "inputs": [
        {
          "internalType": "address",
          "name": "spender",
          "type": "address"
        },
        {
          "internalType": "uint256",
          "name": "subtractedValue",
          "type": "uint256"
        }
      ],
      "name": "decreaseAllowance",
      "outputs": [
        {
          "internalType": "bool",
          "name": "",
          "type": "bool"
        }
      ],
      "stateMutability": "nonpayable",
      "type": "function"
    },
    {
      "inputs": [
        {
          "internalType": "address",
          "name": "spender",
          "type": "address"
        },
        {
          "internalType": "uint256",
          "name": "addedValue",
          "type": "uint256"
        }
      ],
      "name": "increaseAllowance",
      "outputs": [
        {
          "internalType": "bool",
          "name": "",
          "type": "bool"
        }
      ],
      "stateMutability": "nonpayable",
      "type": "function"
    },
    {
      "inputs": [
        {
          "internalType": "address",
          "name": "to",
          "type": "address"
        },
        {
          "internalType": "uint256",
          "name": "amount",
          "type": "uint256"
        }
      ],
      "name": "mint",
      "outputs": [],
      "stateMutability": "nonpayable",
      "type": "function"
    },
    {
      "inputs": [],
      "name": "name",
      "outputs": [
        {
          "internalType": "string",
          "name": "",
          "type": "string"
        }
      ],
      "stateMutability": "view",
      "type": "function"
    },
    {
      "inputs": [],
      "name": "owner",
      "outputs": [
        {
          "internalType": "address",
          "name": "",
          "type": "address"
        }
      ],
      "stateMutability": "view",
      "type": "function"
    },
    {
      "inputs": [],
      "name": "renounceOwnership",
      "outputs": [],
      "stateMutability": "nonpayable",
      "type": "function"
    },
    {
      "inputs": [],
      "name": "symbol",
      "outputs": [
        {
          "internalType": "string",
          "name": "",
          "type": "string"
        }
      ],
      "stateMutability": "view",
      "type": "function"
    },
    {
      "inputs": [],
      "name": "totalSupply",
      "outputs": [
        {
          "internalType": "uint256",
          "name": "",
          "type": "uint256"
        }
      ],
      "stateMutability": "view",
      "type": "function"
    },
    {
      "inputs": [
        {
          "internalType": "address",
          "name": "recipient",
          "type": "address"
        },
        {
          "internalType": "uint256",
          "name": "amount",
          "type": "uint256"
        }
      ],
      "name": "transfer",
      "outputs": [
        {
          "internalType": "bool",
          "name": "",
          "type": "bool"
        }
      ],
      "stateMutability": "nonpayable",
      "type": "function"
    },
    {
      "inputs": [
        {
          "internalType": "address",
          "name": "sender",
          "type": "address"
        },
        {
          "internalType": "address",
          "name": "recipient",
          "type": "address"
        },
        {
          "internalType": "uint256",
          "name": "amount",
          "type": "uint256"
        }
      ],
      "name": "transferFrom",
      "outputs": [
        {
          "internalType": "bool",
          "name": "",
          "type": "bool"
        }
      ],
      "stateMutability": "nonpayable",
      "type": "function"
    },
    {
      "inputs": [
        {
          "internalType": "address",
          "name": "newOwner",
          "type": "address"
        }
      ],
      "name": "transferOwnership",
      "outputs": [],
      "stateMutability": "nonpayable",
      "type": "function"
    }
  ],
  "bytecode": "0x60806040523480156200001157600080fd5b506040518060400160405280600381526020016249434f60e81b8152506040518060400160405280600381526020016249434f60e81b815250816003908051906020019062000062929190620001e6565b50805162000078906004906020840190620001e6565b505050620000956200008f620000a960201b60201c565b620000ad565b620000a333611388620000ff565b6200032e565b3390565b600580546001600160a01b038381166001600160a01b0319831681179093556040519116919082907f8be0079c531659141344cd1fd0a4f28419497f9722a3daafe3b4186f6b6457e090600090a35050565b6001600160a01b038216620001315760405162461bcd60e51b815260040162000128906200028c565b60405180910390fd5b6200013f60008383620001e1565b8060026000828254620001539190620002cc565b90915550506001600160a01b0382166000908152602081905260408120805483929062000182908490620002cc565b90915550506040516001600160a01b038316906000907fddf252ad1be2c89b69c2b068fc378daa952ba7f163c4a11628f55a4df523b3ef90620001c7908590620002c3565b60405180910390a3620001dd60008383620001e1565b5050565b505050565b828054620001f490620002f1565b90600052602060002090601f01602090048101928262000218576000855562000263565b82601f106200023357805160ff191683800117855562000263565b8280016001018555821562000263579182015b828111156200026357825182559160200191906001019062000246565b506200027192915062000275565b5090565b5b8082111562000271576000815560010162000276565b6020808252601f908201527f45524332303a206d696e7420746f20746865207a65726f206164647265737300604082015260600190565b90815260200190565b60008219821115620002ec57634e487b7160e01b81526011600452602481fd5b500190565b6002810460018216806200030657607f821691505b602082108114156200032857634e487b7160e01b600052602260045260246000fd5b50919050565b610d5f806200033e6000396000f3fe608060405234801561001057600080fd5b50600436106101005760003560e01c806370a0823111610097578063a457c2d711610066578063a457c2d7146101e8578063a9059cbb146101fb578063dd62ed3e1461020e578063f2fde38b1461022157610100565b806370a08231146101b0578063715018a6146101c35780638da5cb5b146101cb57806395d89b41146101e057610100565b80632ff2e9dc116100d35780632ff2e9dc1461016b578063313ce56714610173578063395093511461018857806340c10f191461019b57610100565b806306fdde0314610105578063095ea7b31461012357806318160ddd1461014357806323b872dd14610158575b600080fd5b61010d610234565b60405161011a91906109cd565b60405180910390f35b610136610131366004610985565b6102c6565b60405161011a91906109c2565b61014b6102e3565b60405161011a9190610cb3565b61013661016636600461094a565b6102e9565b61014b610382565b61017b610388565b60405161011a9190610cbc565b610136610196366004610985565b61038d565b6101ae6101a9366004610985565b6103e1565b005b61014b6101be3660046108f7565b61042e565b6101ae61044d565b6101d3610498565b60405161011a91906109ae565b61010d6104a7565b6101366101f6366004610985565b6104b6565b610136610209366004610985565b61052f565b61014b61021c366004610918565b610543565b6101ae61022f3660046108f7565b61056e565b60606003805461024390610cee565b80601f016020809104026020016040519081016040528092919081815260200182805461026f90610cee565b80156102bc5780601f10610291576101008083540402835291602001916102bc565b820191906000526020600020905b81548152906001019060200180831161029f57829003601f168201915b5050505050905090565b60006102da6102d36105df565b84846105e3565b50600192915050565b60025490565b60006102f6848484610697565b6001600160a01b0384166000908152600160205260408120816103176105df565b6001600160a01b03166001600160a01b03168152602001908152602001600020549050828110156103635760405162461bcd60e51b815260040161035a90610b31565b60405180910390fd5b6103778561036f6105df565b8584036105e3565b506001949350505050565b61138881565b601290565b60006102da61039a6105df565b8484600160006103a86105df565b6001600160a01b03908116825260208083019390935260409182016000908120918b16815292529020546103dc9190610cca565b6105e3565b6103e96105df565b6001600160a01b03166103fa610498565b6001600160a01b0316146104205760405162461bcd60e51b815260040161035a90610b79565b61042a82826107c1565b5050565b6001600160a01b0381166000908152602081905260409020545b919050565b6104556105df565b6001600160a01b0316610466610498565b6001600160a01b03161461048c5760405162461bcd60e51b815260040161035a90610b79565b6104966000610889565b565b6005546001600160a01b031690565b60606004805461024390610cee565b600080600160006104c56105df565b6001600160a01b03908116825260208083019390935260409182016000908120918816815292529020549050828110156105115760405162461bcd60e51b815260040161035a90610c37565b61052561051c6105df565b858584036105e3565b5060019392505050565b60006102da61053c6105df565b8484610697565b6001600160a01b03918216600090815260016020908152604080832093909416825291909152205490565b6105766105df565b6001600160a01b0316610587610498565b6001600160a01b0316146105ad5760405162461bcd60e51b815260040161035a90610b79565b6001600160a01b0381166105d35760405162461bcd60e51b815260040161035a90610a63565b6105dc81610889565b50565b3390565b6001600160a01b0383166106095760405162461bcd60e51b815260040161035a90610bf3565b6001600160a01b03821661062f5760405162461bcd60e51b815260040161035a90610aa9565b6001600160a01b0380841660008181526001602090815260408083209487168084529490915290819020849055517f8c5be1e5ebec7d5bd14f71427d1e84f3dd0314c0f7b2291e5b200ac8c7c3b9259061068a908590610cb3565b60405180910390a3505050565b6001600160a01b0383166106bd5760405162461bcd60e51b815260040161035a90610bae565b6001600160a01b0382166106e35760405162461bcd60e51b815260040161035a90610a20565b6106ee8383836108db565b6001600160a01b038316600090815260208190526040902054818110156107275760405162461bcd60e51b815260040161035a90610aeb565b6001600160a01b0380851660009081526020819052604080822085850390559185168152908120805484929061075e908490610cca565b92505081905550826001600160a01b0316846001600160a01b03167fddf252ad1be2c89b69c2b068fc378daa952ba7f163c4a11628f55a4df523b3ef846040516107a89190610cb3565b60405180910390a36107bb8484846108db565b50505050565b6001600160a01b0382166107e75760405162461bcd60e51b815260040161035a90610c7c565b6107f3600083836108db565b80600260008282546108059190610cca565b90915550506001600160a01b03821660009081526020819052604081208054839290610832908490610cca565b90915550506040516001600160a01b038316906000907fddf252ad1be2c89b69c2b068fc378daa952ba7f163c4a11628f55a4df523b3ef90610875908590610cb3565b60405180910390a361042a600083836108db565b600580546001600160a01b038381166001600160a01b0319831681179093556040519116919082907f8be0079c531659141344cd1fd0a4f28419497f9722a3daafe3b4186f6b6457e090600090a35050565b505050565b80356001600160a01b038116811461044857600080fd5b600060208284031215610908578081fd5b610911826108e0565b9392505050565b6000806040838503121561092a578081fd5b610933836108e0565b9150610941602084016108e0565b90509250929050565b60008060006060848603121561095e578081fd5b610967846108e0565b9250610975602085016108e0565b9150604084013590509250925092565b60008060408385031215610997578182fd5b6109a0836108e0565b946020939093013593505050565b6001600160a01b0391909116815260200190565b901515815260200190565b6000602080835283518082850152825b818110156109f9578581018301518582016040015282016109dd565b81811115610a0a5783604083870101525b50601f01601f1916929092016040019392505050565b60208082526023908201527f45524332303a207472616e7366657220746f20746865207a65726f206164647260408201526265737360e81b606082015260800190565b60208082526026908201527f4f776e61626c653a206e6577206f776e657220697320746865207a65726f206160408201526564647265737360d01b606082015260800190565b60208082526022908201527f45524332303a20617070726f766520746f20746865207a65726f206164647265604082015261737360f01b606082015260800190565b60208082526026908201527f45524332303a207472616e7366657220616d6f756e7420657863656564732062604082015265616c616e636560d01b606082015260800190565b60208082526028908201527f45524332303a207472616e7366657220616d6f756e74206578636565647320616040820152676c6c6f77616e636560c01b606082015260800190565b6020808252818101527f4f776e61626c653a2063616c6c6572206973206e6f7420746865206f776e6572604082015260600190565b60208082526025908201527f45524332303a207472616e736665722066726f6d20746865207a65726f206164604082015264647265737360d81b606082015260800190565b60208082526024908201527f45524332303a20617070726f76652066726f6d20746865207a65726f206164646040820152637265737360e01b606082015260800190565b60208082526025908201527f45524332303a2064656372656173656420616c6c6f77616e63652062656c6f77604082015264207a65726f60d81b606082015260800190565b6020808252601f908201527f45524332303a206d696e7420746f20746865207a65726f206164647265737300604082015260600190565b90815260200190565b60ff91909116815260200190565b60008219821115610ce957634e487b7160e01b81526011600452602481fd5b500190565b600281046001821680610d0257607f821691505b60208210811415610d2357634e487b7160e01b600052602260045260246000fd5b5091905056fea264697066735822122037472ef1d5c458463685fa5cd535c1d7dd4f7afa8bbd53866edf5f2915571b0964736f6c63430008000033",
  "linkReferences": {},
  "deployedLinkReferences": {}
}